{
  "contractName": "Voting",
  "abi": [
    {
      "inputs": [],
      "payable": false,
      "stateMutability": "nonpayable",
      "type": "constructor"
    },
    {
      "constant": true,
      "inputs": [
        {
          "internalType": "uint256",
          "name": "",
          "type": "uint256"
        }
      ],
      "name": "items",
      "outputs": [
        {
          "internalType": "uint256",
          "name": "id",
          "type": "uint256"
        },
        {
          "internalType": "string",
          "name": "name",
          "type": "string"
        },
        {
          "internalType": "uint256",
          "name": "voteCount",
          "type": "uint256"
        }
      ],
      "payable": false,
      "stateMutability": "view",
      "type": "function"
    },
    {
      "constant": true,
      "inputs": [],
      "name": "itemsCount",
      "outputs": [
        {
          "internalType": "uint256",
          "name": "",
          "type": "uint256"
        }
      ],
      "payable": false,
      "stateMutability": "view",
      "type": "function"
    },
    {
      "constant": true,
      "inputs": [
        {
          "internalType": "address",
          "name": "",
          "type": "address"
        }
      ],
      "name": "voters",
      "outputs": [
        {
          "internalType": "bool",
          "name": "",
          "type": "bool"
        }
      ],
      "payable": false,
      "stateMutability": "view",
      "type": "function"
    },
    {
      "constant": true,
      "inputs": [],
      "name": "votesCount",
      "outputs": [
        {
          "internalType": "uint256",
          "name": "",
          "type": "uint256"
        }
      ],
      "payable": false,
      "stateMutability": "view",
      "type": "function"
    },
    {
      "constant": false,
      "inputs": [
        {
          "internalType": "uint256",
          "name": "_itemId",
          "type": "uint256"
        }
      ],
      "name": "vote",
      "outputs": [],
      "payable": false,
      "stateMutability": "nonpayable",
      "type": "function"
    }
  ],
  "bytecode": "0x608060405234801561001057600080fd5b50600060038190555060006002819055506100656040518060400160405280600781526020017f426974636f696e0000000000000000000000000000000000000000000000000081525061017a60201b60201c565b6100a96040518060400160405280600881526020017f457468657265756d00000000000000000000000000000000000000000000000081525061017a60201b60201c565b6100ed6040518060400160405280600881526020017f446f6765636f696e00000000000000000000000000000000000000000000000081525061017a60201b60201c565b6101316040518060400160405280600781526020017f506f6c79676f6e0000000000000000000000000000000000000000000000000081525061017a60201b60201c565b6101756040518060400160405280600681526020017f546574686572000000000000000000000000000000000000000000000000000081525061017a60201b60201c565b61029b565b6002600081548092919060010191905055506040518060600160405280600254815260200182815260200160008152506001600060025481526020019081526020016000206000820151816000015560208201518160010190805190602001906101e59291906101f6565b506040820151816002015590505050565b828054600181600116156101000203166002900490600052602060002090601f016020900481019282601f1061023757805160ff1916838001178555610265565b82800160010185558215610265579182015b82811115610264578251825591602001919060010190610249565b5b5090506102729190610276565b5090565b61029891905b8082111561029457600081600090555060010161027c565b5090565b90565b6103fd806102aa6000396000f3fe608060405234801561001057600080fd5b50600436106100575760003560e01c80630121b93f1461005c5780638778b27d1461008a578063a3ec138d146100a8578063bfb231d214610104578063e2c03ace146101b9575b600080fd5b6100886004803603602081101561007257600080fd5b81019080803590602001909291905050506101d7565b005b6100926102da565b6040518082815260200191505060405180910390f35b6100ea600480360360208110156100be57600080fd5b81019080803573ffffffffffffffffffffffffffffffffffffffff1690602001909291905050506102e0565b604051808215151515815260200191505060405180910390f35b6101306004803603602081101561011a57600080fd5b8101908080359060200190929190505050610300565b6040518084815260200180602001838152602001828103825284818151815260200191508051906020019080838360005b8381101561017c578082015181840152602081019050610161565b50505050905090810190601f1680156101a95780820380516001836020036101000a031916815260200191505b5094505050505060405180910390f35b6101c16103c2565b6040518082815260200191505060405180910390f35b6000803373ffffffffffffffffffffffffffffffffffffffff1673ffffffffffffffffffffffffffffffffffffffff16815260200190815260200160002060009054906101000a900460ff161561022d57600080fd5b60008111801561023f57506002548111155b61024857600080fd5b60016000803373ffffffffffffffffffffffffffffffffffffffff1673ffffffffffffffffffffffffffffffffffffffff16815260200190815260200160002060006101000a81548160ff021916908315150217905550600160008281526020019081526020016000206002016000815480929190600101919050555060036000815480929190600101919050555050565b60035481565b60006020528060005260406000206000915054906101000a900460ff1681565b6001602052806000526040600020600091509050806000015490806001018054600181600116156101000203166002900480601f0160208091040260200160405190810160405280929190818152602001828054600181600116156101000203166002900480156103b25780601f10610387576101008083540402835291602001916103b2565b820191906000526020600020905b81548152906001019060200180831161039557829003601f168201915b5050505050908060020154905083565b6002548156fea265627a7a72315820a109d5e02b0cff251a7bc90e0e65c5b5bd9b7e6bd7f0a3515a7ae41a14f5fb4164736f6c63430005100032",
  "source": "pragma solidity 0.5.16;\ncontract Voting {\n    // Model a item\n    struct Item {\n        uint id;\n        string name;\n        uint voteCount;\n    }\n    // Store accounts that have voted\n    mapping(address => bool) public voters;\n    // Read/write items\n    mapping(uint => Item) public items;\n    // Store items Count\n    uint public itemsCount;\n    uint public votesCount;\n\n    constructor () public {\n        votesCount = 0;\n        itemsCount = 0;\n        additem(\"Bitcoin\");\n        additem(\"Ethereum\");\n        additem(\"Dogecoin\");\n        additem(\"Polygon\");\n        additem(\"Tether\");\n    }\n    function additem (string memory _name) private {\n        itemsCount ++;\n        items[itemsCount] = Item(itemsCount, _name, 0);\n    }\n    function vote (uint _itemId) public {\n        // require that they haven't voted before\n        require(!voters[msg.sender]);\n        // require a valid item\n        require(_itemId > 0 && _itemId <= itemsCount);\n        // record that voter has voted\n        voters[msg.sender] = true;\n        // update item vote Count\n        items[_itemId].voteCount ++;\n\n        votesCount++;\n    }\n}",
  "sourcePath": "/Users/hendalzahrani/Documents/voting/contracts/Voting.sol",
  "compiler": {
    "name": "solc",
    "version": "0.5.16+commit.9c3226ce.Emscripten.clang"
  },
  "schemaVersion": "3.4.11",
  "updatedAt": "2022-12-18T02:29:34.698Z",
  "networkType": "ethereum",
  "devdoc": {
    "methods": {}
  },
  "userdoc": {
    "methods": {}
  }
}